:100000000C9432010C945A010C945A010C945A012C
:100010000C945A010C945A010C945A010C945A01F4
:100020000C945A010C945A010C94D6070C94A40613
:100030000C945A010C945A010C945A010C945A01D4
:100040000C945A010C945A010C945A010C945A01C4
:100050000C945A010C945A010C945A010C94B2015C
:100060000C945A010C945A010C945A010C945A01A4
:100070000C945A010C945A010C945A010C945A0194
:100080000C945A010C945A010C945A010C945A0184
:100090000C945A010C945A010C945A010C945A0174
:1000A0000C945A010C945A010C945A010706050449
:1000B0000100080A0B0C0D09080B000202020100E6
:1000C00009040000010202000005240010010524BB
:1000D000010101042402060524060001070581032D
:1000E00010004009040100020A0000000705020296
:1000F0004000000705830240000000C18081C1125A
:10010000010002020000404123368000010102008C
:10011000011201000200000040412336800001016D
:100120000200011803410072006400750069006E4E
:10013000006F0020004C004C00430022034100727D
:10014000006400750069006E006F0020004C0065BF
:10015000006F006E006100720064006F000403090C
:100160000400000000000000002A2B28000000000E
:10017000000000000000000000000000000000007F
:10018000002C9EB4A0A1A2A434A6A7A5AE362D37FC
:1001900038271E1F20212223242526B333B62EB74D
:1001A000B89F8485868788898A8B8C8D8E8F909165
:1001B00092939495969798999A9B9C9D2F3130A3F2
:1001C000AD350405060708090A0B0C0D0E0F1011BA
:1001D00012131415161718191A1B1C1DAFB1B0B540
:1001E00000090402000103000000092101010001CF
:1001F0002265000705840340000105010902A101F1
:100200000901A1008501050919012903150025012E
:10021000950375018102950175058103050109307A
:10022000093109381581257F750895038106C0C0FD
:1002300005010906A1018502050719E029E7150056
:1002400025017501950881029501750881039506C0
:100250007508150025650507190029658100C0008E
:10026000D1048A0911241FBECFEFDAE0DEBFCDBF73
:1002700011E0A0E0B1E0E4EAF3E102C005900D92E4
:10028000AA33B107D9F711E0AAE3B1E001C01D928A
:10029000AD3AB107E1F712E0C4E6D2E004C022971C
:1002A000FE010E94CC09C036D107C9F70E94970908
:1002B0000C94D0090C94000060E875E285E491E0AC
:1002C0000E94D0046DE071E085E491E00C94FD02A1
:1002D000809100010E947D0190933B0180933A013F
:1002E0004AE050E0BC0185E491E00E94B80360E67A
:1002F0007AEE80E090E00C942602823108F0825180
:10030000E82FF0E0E455FF4FE49180917B00E3FBA0
:10031000222720F930E095E0220F331F9A95E1F76C
:100320008F7D822B80937B00E7708091020120E417
:10033000829FC0011124E82BE0937C0080917A0019
:10034000806480937A0080917A0086FDFCCF2091B2
:10035000780030917900932F80E0AC01422B9A0114
:10036000C90108951F920F920FB60F9211242F9377
:100370003F938F939F93AF93BF9380913C01909154
:100380003D01A0913E01B0913F0130914401232FE6
:100390002D5F2D3720F40196A11DB11D05C0232F1F
:1003A0002A570296A11DB11D2093440180933C0160
:1003B00090933D01A0933E01B0933F018091400195
:1003C00090914101A0914201B09143010196A11D7C
:1003D000B11D8093400190934101A0934201B093DD
:1003E0004301BF91AF919F918F913F912F910F90BA
:1003F0000FBE0F901F9018950F931F939FB7F894FF
:10040000009140011091410120914201309143013E
:1004100086B5A89B06C08F3F21F00F5F1F4F2F4F5F
:100420003F4F9FBF322F212F102F0027080F111D84
:10043000211D311D42E0000F111F221F331F4A955D
:10044000D1F7B801C9011F910F910895CF92DF92A2
:10045000EF92FF92CF93DF936B017C010E94FC012E
:10046000EB010EC00E94FC016C1B7D0B683E7340CB
:1004700038F081E0C81AD108E108F108C851DC4F12
:10048000C114D104E104F10469F7DF91CF91FF9029
:10049000EF90DF90CF900895789484B5826084BD0A
:1004A00084B5816084BD85B5826085BD85B5816078
:1004B00085BDEEE6F0E0808181608083E1E8F0E0D8
:1004C0001082808182608083808181608083E0E807
:1004D000F0E0808181608083E1E9F0E080818260EA
:1004E0008083808181608083E0E9F0E080818160A9
:1004F0008083E1ECF0E08081846080838081826091
:100500008083808181608083E3ECF0E08081816082
:100510008083E0ECF0E0808182608083E2ECF0E0B8
:10052000808181608083EAE7F0E08081846080835D
:100530008081826080838081816080838081806807
:1005400080830895CF92DF92EF92FF920F931F93D3
:10055000CF93DF936C01EB017A01E60EF71E00E00A
:1005600010E00BC06991D601ED91FC910190F081F2
:10057000E02DC6010995080F191FCE15DF0591F76B
:10058000C801DF91CF911F910F91FF90EF90DF9005
:10059000CF9008956115710581F0DB010D90002069
:1005A000E9F7AD0141505109461B570BDC01ED91B4
:1005B000FC910280F381E02D099480E090E00895A1
:1005C000DC01ED91FC910190F081E02D09940F93F5
:1005D0001F93CF93DF93EC016DE00E94E0028C014A
:1005E0006AE0CE010E94E0029C01200F311FC90188
:1005F000DF91CF911F910F9108950F931F93CF9388
:10060000DF93EC010E94CA028C01CE010E94E70236
:100610009801280F391FC901DF91CF911F910F91C8
:1006200008954F925F926F927F929F92AF92BF9286
:10063000CF92DF92EF92FF920F931F93CF93DF93AE
:10064000CDB7DEB7A1970FB6F894DEBF0FBECDBF12
:100650005C016A017B01922E19A281E0821710F0E1
:100660008AE0982E8E010F5D1F4F492C512C612C72
:10067000712CC701B601A30192010E94A8098C2D1B
:10068000929E80191124015011098A3014F4805D62
:1006900001C0895CF801808369017A01C114D10429
:1006A000E104F10431F7B801C5010E94CA02A19624
:1006B0000FB6F894DEBF0FBECDBFDF91CF911F9173
:1006C0000F91FF90EF90DF90CF90BF90AF909F90F1
:1006D0007F906F905F904F900895CF92DF92EF924E
:1006E000FF920F931F93CF93DF93EC016A017B017D
:1006F0002115310579F4E881F9810190F081E02D2F
:10070000642FDF91CF911F910F91FF90EF90DF90B9
:10071000CF9009942A30310519F477FD0EC02AE0F4
:10072000B701A601CE01DF91CF911F910F91FF90EC
:10073000EF90DF90CF900C9411036DE20E94E002E5
:100740008C0144275527BA014C195D096E097F09B0
:100750002AE0CE010E941103080F191FC801DF9182
:10076000CF911F910F91FF90EF90DF90CF90089560
:100770000F931F93CF93DF93EC019A01AB01662790
:1007800057FD6095762F0E946D038C01CE010E946B
:10079000E7029801280F391FC901DF91CF911F91FE
:1007A0000F910895209193013091940180919501CA
:1007B00090919601281B390B2F733327C901089597
:1007C000209193013091940180919501909196012F
:1007D0002817390749F0E0919501F0919601ED5AFB
:1007E000FE4F208130E002C02FEF3FEFC901089596
:1007F00020919301309194018091950190919601FF
:1008000028173907B1F0E0919501F0919601ED5A62
:10081000FE4F808120919501309196012F5F3F4FCF
:100820002F7333273093960120939501282F30E0C2
:1008300002C02FEF3FEFC90108950F931F93CF938D
:10084000DF931F92CDB7DEB78C01698380910A01D7
:10085000882369F041E050E0BE016F5F7F4F83E085
:100860000E9488051816190614F49C0107C081E03F
:1008700090E0F8019383828320E030E0C9010F907B
:10088000DF91CF911F910F91089583E00C94CC07D5
:10089000CF93DF9312C082E00E9456058F3F2FEF67
:1008A0009207C9F0E0919301F0919401ED5AFE4F47
:1008B0008083D0939401C0939301C0919301D09110
:1008C00094012196CF73DD27809195019091960137
:1008D000C817D90701F7DF91CF910895FC01208156
:1008E0002E5F208342E450E068EB70E080E80C94D7
:1008F0002306FC0181819081913A59F4813209F0FB
:100900004BC047E050E063E071E080E00E942306C6
:1009100045C0913209F040C0803239F467E070E0A0
:1009200083E091E00E94760639C0823209F034C03B
:10093000828180930A018091030190910401A0912A
:100940000501B0910601803B9440A105B10531F548
:1009500080910A0180FD12C087E797E79093010814
:10096000809300082BE088E190E00FB6F894A895FA
:10097000809360000FBE2093600010C088E10FB626
:10098000F89480936000109260000FBEA8951092BA
:1009900001081092000802C080E0089581E00895E7
:1009A0000895109248011092470188EE93E0A0E06C
:1009B000B0E08093490190934A01A0934B01B0931A
:1009C0004C018EE191E0909346018093450108959A
:1009D00005C02091F100FC012193CF016150C8F7BF
:1009E000289884E680939E0108952FB7FC01208308
:1009F000F89467706093E9000895CF93DF931F9296
:100A0000CDB7DEB7682FCE0101960E94F504809124
:100A1000F20099819FBF0F90DF91CF910895FF92CF
:100A20000F931F93CF93DF9300D0CDB7DEB7F62E91
:100A30008A0190919D019923A9F057FF16C012C019
:100A4000289880939E019091F1009193FE12F8CF27
:100A50004115510521F08091F2008823D1F0898160
:100A60008FBF1BC04FEF5FEF18C0682FCE010196FC
:100A70007A830E94F5048091F20090E0A8017A81C7
:100A8000801791070CF4AC01EF2DF72FF40E84E6DC
:100A9000DDCF8BE68093E800E2CFCA010F900F9084
:100AA000DF91CF911F910F91FF900895CF93DF9326
:100AB0001F92CDB7DEB741E050E0BE016F5F7F4FC0
:100AC0000E940F05019719F4298130E002C02FEF31
:100AD0003FEFC9010F90DF91CF910895CF93DF933E
:100AE0001F92CDB7DEB7682FCE0101960E94F504A4
:100AF0008091E80085FF05C09091F20080E4891B99
:100B000001C080E099819FBF0F90DF91CF91089540
:100B10006F927F928F929F92AF92BF92CF92DF920D
:100B2000EF92FF920F931F93CF93DF931F92CDB756
:100B3000DEB7782EC42EB52E80919D0181114CC058
:100B40002FEF3FEF64C0872D0E946E05682E811144
:100B500009C0DA94A9F361E070E080E090E00E94BF
:100B6000260247C0282F30E0021713070CF4602E2E
:100B700006191109672DCE0101960E94F5049920EE
:100B800041F002C01092F1006A948FEF6812FACF20
:100B900017C0862D77FC02C0F7010EC0970106C072
:100BA000F9012F5F3F4FE491E093F1008150C0F7CE
:100BB00005C091919093F1008150D8F7E60CF11C9B
:100BC0008091E80085FF20C00115110511F4811006
:100BD0001BC089818FBF0DC07B01042F152F8AEFA9
:100BE000D82E90E2992E97202AE3A22E30E4832E6D
:100BF00087200115110509F0A6CF5D9884E6809342
:100C00009F012C2D3B2D03C0A092E800E2CFC9012B
:100C10000F90DF91CF911F910F91FF90EF90DF9098
:100C2000CF90BF90AF909F908F907F906F900895DE
:100C30001092E90010929C0110929B0190939A01EE
:100C4000809399010895FF920F931F93CF93DF93A1
:100C5000C42FD52FDB0160E070E0EEEFFE2E38C030
:100C60009D012F5F3F4F87FF04C0FD01D901E49133
:100C700002C0EC91D90100919B0110919C0120913F
:100C8000990130919A0102171307B4F49091E8008A
:100C90009570E1F39091E80092FD1FC0E093F100A0
:100CA00020919B0130919C012F5F3F4F2F73332781
:100CB000232B11F4F092E80020919B0130919C01CC
:100CC0002F5F3F4F30939C0120939B016F5F7F4FBD
:100CD0006C177D0729F69A0102C02FEF3FEFC9017B
:100CE000DF91CF911F910F91FF9008951F93CF93A4
:100CF000DF931F92CDB7DEB7162F2091E80022FFB9
:100D0000FCCF612F79830E94E8048BEF8093E80089
:100D1000812F7981972F0F90DF91CF911F910895A7
:100D2000CF93DF931F92CDB7DEB71982CE01019624
:100D30000E946E04CE0101960E947208898190E0A3
:100D40000F90DF91CF9108951F920F920FB60F92DF
:100D50001124EF92FF920F931F932F933F934F9382
:100D60005F936F937F938F939F93AF93BF93EF9313
:100D7000FF93CF93DF93CDB7DEB76297DEBFCDBFD2
:100D80001092E9008091E80083FFE9C068E0CE019D
:100D90000A960E94E80482EF8093E8009A8597FF04
:100DA00005C08091E80080FFFCCF03C08EEF8093E8
:100DB000E800892F807609F0B7C08B85811105C0C6
:100DC0001092F1001092F100C3C0813009F4C0C04C
:100DD000833009F4BDC0853049F48091E80080FF7C
:100DE000FCCF8C8580688093E300B2C0863009F028
:100DF00073C02D85E888F988223071F580E090E095
:100E00002A8B0E9418060E94900699E08E010F5FBF
:100E10001F4FF801392F11923A95E9F799832A89E2
:100E20002A8391E09E8390E898879AEF9987209192
:100E30009B0130919C01275F3F4F3C832B838D8327
:100E4000C7010E94180649E050E0B80180E00E9406
:100E500023060E9490067CC0C7012A8B0E941806B8
:100E60002A89223241F482E290E00E947D08892B97
:100E700009F06EC071C0213071F488899989089792
:100E800019F481E08093980180919801882389F07A
:100E90006FEF70E016C0233009F05EC08C858823A8
:100EA00059F0823061F0813009F056C063E271E0A0
:100EB00008C061E171E005C06DE571E002C06BE35F
:100EC00071E06115710509F447C0FB01449150E0E0
:100ED00080E80E9423063CC0873009F43DC088307A
:100EE00021F481E08093F10033C0893089F593705B
:100EF00099F5EBEFF0E081E021E096E38093E900E3
:100F00002093EB0034913093EC009093ED008F5FD1
:100F10003196853099F78EE78093EA001092EA00C7
:100F20008C8580939D0114C0888999890E94180638
:100F30008E85811105C0CE010A960E94790406C0F3
:100F4000823051F4CE010A960E94A508882321F030
:100F50008EEF8093E80003C081E28093EB006296FD
:100F60000FB6F894DEBF0FBECDBFDF91CF91FF91DA
:100F7000EF91BF91AF919F918F917F916F915F9111
:100F80004F913F912F911F910F91FF90EF900F90F4
:100F90000FBE0F901F9018958093E9008091F2008A
:100FA000882319F08AE38093E80008951F920F9236
:100FB0000FB60F9211242F933F934F935F936F932C
:100FC0007F938F939F93AF93BF93EF93FF93809102
:100FD000E1001092E10083FF0FC01092E90091E060
:100FE0009093EB001092EC0092E39093ED0010923E
:100FF0009D0198E09093F00082FF26C083E00E945C
:10100000CC0782E00E94FD04882321F085E491E072
:101010000E94480480919F01882339F080919F01AC
:10102000815080939F01882361F080919E018823E5
:1010300059F080919E01815080939E01882319F080
:1010400003C05D9AF2CF289AFF91EF91BF91AF91C3
:101050009F918F917F916F915F914F913F912F91D0
:101060000F900FBE0F901F90189510929D0181E078
:101070008093D70080EA8093D80082E189BD09B4CB
:1010800000FEFDCF61E070E080E090E00E9426026B
:1010900080E98093D8008CE08093E2001092E00019
:1010A000559A209A0895FF920F931F93CF93DF9341
:1010B000EC01F62EE881F9810480F581E02D099597
:1010C0008C01E881F9810680F781E02D6F2DCE013A
:1010D000099598013327C901DF91CF911F910F9195
:1010E000FF900895FC0120812F5F208349E150E0AB
:1010F00061EE71E080E80C94230645E650E06AEF6B
:1011000071E080E80C942306EF92FF920F931F93F7
:10111000CF93DF931F92CDB7DEB789838B017A011E
:1011200041E050E0BE016F5F7F4F84E00E94880580
:10113000A701B80184E40E9488050F90DF91CF9148
:101140001F910F91FF90EF900895FC019181808194
:10115000813A31F481E0913091F0933091F010C0F8
:10116000813271F49B3021F4828180930C0105C09F
:101170009A3031F4828180930B0181E008950895C3
:1011800080E0089548E050E082E00C948408FC017F
:101190001682178210861186128613861482BC016D
:1011A0006C5F7F4F0C94C208E62F683810F0E85847
:1011B00024C0F0E067FF12C0E058F10921E030E000
:1011C00001C0220FEA95EAF72095DC0114963C91C4
:1011D0001497322314963C93E0E00FC0EF59FE4F72
:1011E000E491EE2329F1E7FF08C0DC0114962C916D
:1011F00014972D7F14962C93EF7720E030E0EE23A8
:1012000051F0DC01A20FB31F16964C9116974E13A6
:1012100002C016961C922F5F3F4F2630310579F79A
:10122000BC016C5F7F4F0E94C20821E030E002C029
:1012300020E030E0C9010895CF93DF93DC01E62F71
:10124000683810F0E85824C0F0E067FF11C0E0589B
:10125000F10981E090E001C0880FEA95EAF7149661
:101260009C911497982B14969C931497E0E010C0CF
:10127000EF59FE4FE491E11101C040C0E7FF08C003
:1012800014968C911497826014968C931497EF7730
:1012900016968C9116978E1741F117968C91179789
:1012A0008E1719F118968C9118978E17F1F01996E0
:1012B0008C9119978E17C9F01A968C911A978E17E0
:1012C000A1F01B968C911B978E1779F080E090E02F
:1012D000ED01C80FD91F2E81211102C0EE8305C078
:1012E000019686309105A1F709C0BD016C5F7F4F63
:1012F000CD010E94C20821E030E008C081E090E00A
:1013000013969C938E93129720E030E0C901DF91F1
:10131000CF9108951092AC011092A3011092A201F6
:1013200080E391E09093A1018093A00108950E9431
:101330004C0287E991E00E9435080E945C01C0E000
:10134000D0E00E9468012097E1F30E940000F9CFED
:10135000A1E21A2EAA1BBB1BFD010DC0AA1FBB1FB9
:10136000EE1FFF1FA217B307E407F50720F0A21B2B
:10137000B30BE40BF50B661F771F881F991F1A9498
:1013800069F760957095809590959B01AC01BD01C2
:10139000CF010895EE0FFF1F0590F491E02D099401
:0413A000F894FFCFEF
:1013A40012000100E1000000000000010148656C2A
:1013B4006C6F20776F726C642100000000001D04C4
:1013C400A202D203F803E00345044804000000002D
:0A13D4005308A2021C09D408C70840
:00000001FF
